:100000000C945C000C9479000C9479000C947900A9
:100010000C9479000C9479000C9479000C9479007C
:100020000C9479000C9479000C9479000C9479006C
:100030000C9479000C9479000C9479000C9479005C
:100040000C9424010C9479000C9479000C947900A0
:100050000C9479000C9479000C9479000C9479003C
:100060000C9479000C947900000000080002010053
:100070000003040700000000000000000000000072
:10008000250028002B0000000000240027002A0083
:10009000040404040404040402020202020203032E
:1000A0000303030301020408102040800102040836
:1000B000102001020408102011241FBECFEFD8E049
:1000C000DEBFCDBF11E0A0E0B1E0EEE4F4E002C09D
:1000D00005900D92A230B107D9F721E0A2E0B1E07E
:1000E00001C01D92AC30B207E1F70E946E010C9482
:1000F00025020C94000090E0FC01EC55FF4F249188
:1001000080579F4FFC018491882399F090E0880FDD
:10011000991FFC01EA57FF4FA591B491FC01E458E7
:10012000FF4F859194918FB7F894EC91E22BEC936B
:100130008FBF089590E0FC01E859FF4F2491FC0126
:10014000EC55FF4F3491FC01E057FF4FE491EE2353
:10015000C9F0222339F0233001F1A8F4213019F13C
:10016000223029F1F0E0EE0FFF1FE458FF4FA59178
:10017000B4918FB7F894EC91611126C030953E236D
:100180003C938FBF08952730A9F02830C9F0243060
:1001900049F7809180008F7D03C0809180008F7728
:1001A00080938000DFCF84B58F7784BDDBCF84B5AB
:1001B0008F7DFBCF8091B0008F778093B000D2CF3E
:1001C0008091B0008F7DF9CF3E2BDACFCF93DF93B4
:1001D000EC0160E088E00E949A00DEBD00000DB4F2
:1001E00007FEFDCF8EB5CEBD00000DB407FEFDCFDE
:1001F0008EB561E088E0DF91CF910C949A003FB713
:10020000F8948091080190910901A0910A01B091A0
:100210000B0126B5A89B05C02F3F19F00196A11D23
:10022000B11D3FBFBA2FA92F982F8827BC01CD0140
:10023000620F711D811D911D42E0660F771F881F9F
:10024000991F4A95D1F708951F920F920FB60F92FA
:1002500011242F933F938F939F93AF93BF938091DC
:10026000040190910501A0910601B0910701309120
:10027000030123E0230F2D3758F50196A11DB11D71
:10028000209303018093040190930501A09306013C
:10029000B09307018091080190910901A0910A0192
:1002A000B0910B010196A11DB11D8093080190939F
:1002B0000901A0930A01B0930B01BF91AF919F91E7
:1002C0008F913F912F910F900FBE0F901F90189517
:1002D00026E8230F0296A11DB11DD2CF789484B5D4
:1002E000826084BD84B5816084BD85B5826085BD32
:1002F00085B5816085BD80916E00816080936E00C0
:1003000010928100809181008260809381008091B1
:100310008100816080938100809180008160809362
:1003200080008091B10084608093B1008091B00022
:1003300081608093B00080917A00846080937A001D
:1003400080917A00826080937A0080917A00816047
:1003500080937A0080917A00806880937A0010926E
:10036000C100CFB7F89480910201811124C0EAE95D
:10037000F0E08491EEEAF0E09491E82FF0E0EE0FE7
:10038000FF1FEA57FF4FA591B491EC91E92321F4A7
:1003900061E08AE00E949A008AE00E947B008CB5AE
:1003A00080618CBD8CB580648CBD8DE00E947B002B
:1003B0008BE00E947B00809102018F5F809302019D
:1003C000CFBF88E00E947B0090E080E00E94E600C2
:1003D000C0E0D0E080910001909101010E94E60010
:1003E0008091000190910101880F991F811D9093C8
:1003F0000101809300010E94FF004B015C0184EF2A
:10040000C82EDD24D394E12CF12C0E94FF00681942
:1004100079098A099B09683E734081059105A8F313
:1004200021E0C21AD108E108F10888EE880E83E0C5
:10043000981EA11CB11CC114D104E104F10429F7D8
:0E044000209741F20E940000C5CFF894FFCF34
:02044E000100AB
:00000001FF
